S01400004F535F5363686564756C65722E7372656370
S11300000C942A000C943C000C943C000C943C008E
S11300100C943C000C943C000C943C000C943C006C
S11300200C943C000C9454010C943C000C943C0043
S11300300C943C000C943C000C943C000C943C004C
S11300400C943C000C943C000C943C000C943C003C
S11300500C943C0011241FBECFE5D8E0DEBFCDBF19
S113006020E0A0E6B0E001C01D92AA37B207E1F794
S11300700E9461000C94D6010C94000041E00E949F
S11300808A0008950E94FF00089562E080E00E94C3
S11300903E0061E080E00E943E0060E080E00E945B
S11300A03E00089562E080E00E944200089561E00D
S11300B080E00E944200089560E080E00E944200D7
S11300C008950E94B80125E430E040E050E060E08B
S11300D070E080E00E94BD0122E530E040E050E0A5
S11300E068EE73E081E00E94BD0127E530E040E066
S11300F050E060ED77E082E00E94BD012CE530E045
S113010040E050E068EB7BE083E00E94BD010E9488
S1130110D301FFCF813011F130F08230D1F183303F
S113012009F452C00895413059F42AB381E090E0B3
S113013002C0880F991F6A95E2F7822B8ABB089543
S113014041115CC02AB381E090E002C0880F991F7E
S11301506A95E2F7809582238ABB0895413059F469
S113016027B381E090E002C0880F991F6A95E2F7F7
S1130170822B87BB0895411141C027B381E090E0F1
S113018002C0880F991F6A95E2F78095822387BB86
S11301900895413059F424B381E090E002C0880FFF
S11301A0991F6A95E2F7822B84BB0895411126C0FA
S11301B024B381E090E002C0880F991F6A95E2F7AA
S11301C08095822384BB0895413059F421B381E0A2
S11301D090E002C0880F991F6A95E2F7822B81BBD9
S11301E0089541110BC021B381E090E002C0880F53
S11301F0991F6A95E2F78095822381BB0895813027
S113020089F028F08230C9F0833011F108952BB3BE
S113021081E090E002C0880F991F6A95E2F7822777
S11302208BBB089528B381E090E002C0880F991F2A
S11302306A95E2F7822788BB089525B381E090E0B0
S113024002C0880F991F6A95E2F7822785BB08953B
S113025022B381E090E002C0880F991F6A95E2F70B
S1130260822782BB08958FEF8DBD82E88CBD88B74D
S1130270846088BF08958FB780688FBF089589B759
S1130280846089BF08958EB582608EBD0E943F014F
S11302900E943B018FEF8DBD82E88CBD0895909341
S11302A061008093600008951F920F920FB60F9221
S11302B011242F933F934F935F936F937F938F9367
S11302C09F93AF93BF93EF93FF930E943301E09109
S11302D06000F09161000995FF91EF91BF91AF919A
S11302E09F918F917F916F915F914F913F912F914A
S11302F00F900FBE0F901F901895CF92DF92EF9240
S1130300FF921F93CF93DF9310E028C0C12FD0E05A
S1130310FE01EE0FFF1FEC0FFD1FEE0FFF1FEE5946
S1130320FF4F80819181009761F46F010480F58112
S1130330E02D0995F6018281938101979183808351
S11303400CC09E01220F331FC20FD31FCC0FDD1F21
S1130350CE59DF4F0197998388831F5F1430B0F221
S1130360DF91CF911F91FF90EF90DF90CF90089590
S11303708DE791E00E944F01089590E0FC01EE0F9B
S1130380FF1FDF01A80FB91FAA0FBB1FAE59BF4F34
S113039013967C936E93129711965C934E93FD0182
S11303A03583248308950E9443010895F894FFCF70
S9030000FC
